:020000040800F2
:10000000980E002091650008FD640008FF64000858
:100010000165000803650008056500080000000090
:10002000000000000000000000000000076500085C
:1000300009650008000000000B6500080D65000858
:10004000BD650008C1650008C5650008C9650008F0
:10005000CD650008D1650008D5650008D9650008A0
:10006000DD650008E1650008E56500081165000828
:10007000E9650008ED650008F1650008F565000810
:10008000F9650008FD6500080166000805660008BE
:10009000096600080D66000811660008156600086C
:1000A000196600081D66000821660008256600081C
:1000B000296600082D6600083166000835660008CC
:1000C000396600083D66000841660008456600087C
:1000D000496600084D66000851660008556600082C
:1000E000596600085D6600080000000061660008AF
:1000F00065660008696600086D660008716600089C
:1001000075660008796600087D660008816600084B
:1001100085660008896600088D66000891660008FB
:1001200095660008996600089D660008A1660008AB
:10013000A5660008A9660008AD660008B16600085B
:1001400000000000000000000000000000000000AF
:10015000B5660008B9660008BD660008C1660008FB
:10016000C5660008C9660008CD660008D1660008AB
:10017000D5660008D9660008DD66000800000000AA
:10018000E1660008E5660008E9660008ED6600081B
:10019000F1660008F5660008F9660008FD660008CB
:1001A00001670008056700080967000800000000F3
:1001B0000D67000811670008156700081967000837
:1001C0001D67000821670008000000000000000013
:1001D000000000000000000025670008000000008B
:1001E000000000000000000000000000000000000F
:1001F0000000000000000000296700082D670008CB
:100200003167000835670008000000003967000802
:100210003D67000841670008456700084967000816
:100220004D67000800000000516700080000000052
:100230005567000859670008000000005D67000866
:100240006167000865670008696700086D67000856
:100250007167000875670008796700087D67000806
:100260008167000885670008896700088D670008B6
:100270009167000895670008996700080000000072
:100280009D670008A1670008A5670008A967000826
:1002900000000000AD670008B16700080000000022
:1002A00000000000B5670008B9670008BD670008D6
:1002B000C1670008C5670008C9670008CD67000866
:1002C000D1670008D5670008D967000870B50546F2
:1002D000382105F10C00002401F058FDDFF85C0422
:1002E000DFF85C1402684CF24026520852000260AB
:1002F0000B684FF6F0700340B3421FBF0968084017
:100300004CF27022904202BFDFF83834186800289F
:1003100049D1DFF834040168C1F30B01B1F58A6FEC
:100320001FBF0268C2F30B0240F283418A421FD012
:10033000006840F28542C0F30B00904218D0DFF80D
:1003400054150B68C3F30B03B3F5A06F2BD1DFF883
:10035000481501228A6088680028FCD1DFF844250E
:10036000DFF844350A600968994210D1EB600FE06C
:10037000DFF8281501268E6088680028FCD1DFF898
:100380002425DFF824350A60096899421AD0E8600C
:1003900028896989688668682986B0F1004F13D377
:1003A0006FF0004010E0DFF8F81401228A608868DE
:1003B0000028FCD1DFF8EC24DFF8EC340A6009688F
:1003C0009942E4D1EB60E3E7A862288818B9DFF826
:1003D0008C06286106E0012803D1DFF87C0628613D
:1003E00000E002246888012804D1E86B40F0200076
:1003F000E86302E008B144F00104686818B1E96BF1
:1004000041F01001E9631CB9E86B40F04000E8637B
:10041000204670BD2DE9F04381B00546D5F83C80FB
:10042000E8680F460024DFF8801428F0800888422E
:1004300018BF04246DD15FEA486058BF10243E887D
:10044000052E18BF062E1FD0072E18BF012E1BD059
:10045000022E1CBF032E042E16D044F00804B5F95A
:100460003400B7F90410884204BFAA8DB24249D0C3
:10047000B7F90490484610F10C0F18DA6FF00B0032
:1004800044F04004B8803BE0A98DB142E7D0698ECA
:100490004FEA1818DFF8D02746EA081802EB0610D2
:1004A000012919BF0168296440682864E0E73428FD
:1004B00004DB332044F04004B88021E021071FD43E
:1004C00000EE100AB8EEC00AF3EE040AC0EE200AED
:1004D000B2EE040A01F072FCDFF88C0700EB0610A4
:1004E000D0ED030A20EE200A90ED021A20EE010A58
:1004F00001F0FAFDBDEEC00AA5F8349085ED0E0AB4
:100500003888A8857988E9850CB948F08008C5F84D
:100510003C80204601B0BDE8F08330B581B0134681
:10052000DA680024DFF88053AA4218BF04240DD1F2
:10053000DA6B150606D503F10C021B6C98472046B2
:1005400001B030BD2024500658BF3024204601B0F1
:1005500030BD2DE9F04F82B0144680460F466569E4
:100560002669A169A368E068DFF86C990090628C45
:100570000020DFF868C9DFF810ED002A48D04246B5
:1005800001978046E08C022805D197781078121DDB
:1005900000EB072706E0175C92F800A002EB400290
:1005A0000AEB0727606807F0FF0A3F0A50F82AB0F5
:1005B0000BEB912B50F8271001EB9B210EEA0B401F
:1005C000C1F30907381820FB0C3720FB09F3E06959
:1005D000A7F5006730B17D19AD1B55FB10F53E4600
:1005E0006D002F46E06AB4F824B03F041FFA88FA81
:1005F00008F1010857FB10F0019F0BFB0AFA20F3EA
:100600008F0027F81A00678C1FFA88F0B842B9D318
:10061000A3600098E060A1616561266102B0BDE859
:10062000F08F00002DE9F04F81B0568C07468846C8
:100630005069116993699468002ED2F80CC04FF08C
:10064000000EDFF89898DFF840AC6ED0CDF800804F
:10065000F046D58C022D09D1BD7897F800E03E799F
:10066000BF1D0EEB052505EB06450DE0AE467D5D95
:1006700097F800B017F81E600EEB4E0E0BEB052539
:1006800005EB064507EB0E07D2F804E005F0FF0B7B
:100690005EF82B6006EB9326C5F307235EF8233044
:1006A0002D0C03EB96230AEA0646C3F3090E7644A3
:1006B00026FB09CEDFF8ACCD26FB0C4C012426FB33
:1006C00004F4566856F8255005EB9323C3F3090547
:1006D00005EB450B05EB45052C19AEF5D855D2F8C1
:1006E0001CE00CEB4B0CBEF1000F07D02818401A91
:1006F00050FB1EF0294640004FEA0005D2F82CE0DE
:10070000B2F824B0AD031FFA88F608F1010855FBD2
:100710001EFE009D0BFB06F62EF38F0E25F816E04D
:10072000558C1FFA88FEAE4593D39460C2F80CC076
:1007300093615061116101B0BDE8F08F002000E0CD
:1007400000ED00E0002004E00010005C2DE9F04F17
:1007500081B0558C07468846506911699369946841
:10076000002DD2F80CC04FF0000EDFF8E49BDFF84C
:1007700018AB00F08580CDF80080F046B2F826E096
:10078000BEF1020F0CD1BD7897F800E03E790EEB78
:10079000052EBD7908370EEB064E0EEB056E10E008
:1007A000754617F80EE03E7817F815B006EB0E2EDA
:1007B00005EB4506BE5D07EB85070EEB0B4E0EEB1A
:1007C000066E55680EF0FF0B55F82B60DFF898BCED
:1007D00006EB9326CEF3072355F8233003EB96233D
:1007E0000AEA0646C3F30905AE1926FB09CC26FB27
:1007F0000B450124CEF3074B4FEA1E6E26FB04F493
:10080000566856F82BB00BEB932B56F82E3003EBB3
:100810009B230AEA0B4E4FF4803BC3F30906B64410
:100820002EFB0BC6DFF844CC2EFB0C5CDFF83C5DE6
:100830002EFB0544D2F81CE0A6F58046BEF1000F61
:1008400006D03018401A50FB1EF0314640000646D4
:10085000D2F82CE0B2F824B07603009D56FB1EFEC1
:100860001FFA88F608F101080BFB06F62EF38F0E2F
:1008700025F816E0558C1FFA88FEAE45FFF47EAFD2
:100880009460C2F80CC093615061116101B0BDE881
:10089000F08F0000001008500040004C004C02583F
:1008A00000300240C2A507F4CDB5E8B52DE9F04F00
:1008B000002781B08E461346B3F822C05C691D69DB
:1008C0009969D3F808A0D3F80C80DFF8BC29BCF1F3
:1008D000000F00F0B6808446CDF800E0B3F826E0C3
:1008E000BEF1020F16D19CF802E09CF800009CF8C3
:1008F00004909CF80A6000EB0E209CF806E000EBE8
:1009000009409CF808900CF10C0C00EB0E6009EB10
:10091000062E1BE01CF80EB09CF800004FEA4E09B2
:1009200000EB0B201CF809B000EB0B400EEB4E0B5C
:100930001CF80BB00CEB8E0C1CF80EE09CF8006061
:100940000CEB090C00EB0B6006EB0E2ED3F80490B9
:1009500000F0FF0B59F82B60DFF814BC06EB912672
:10096000C0F3072159F8211001EB962102EA06494C
:10097000C1F30906B144DFF8FC6B29FB0B88C0F317
:10098000074B000E29FB06AA012629FB06F95E6823
:1009900056F82BB00BEB912B56F8200000EB9B2068
:1009A00002EA0B41DFF8A8B9C0F3090671184FF04D
:1009B0001B1621FB0B880EF0FF0B4FEA1E2E21FBAE
:1009C00006AADFF8A86B21FB0699596851F82B603D
:1009D00051F82E1006EB902601EB962102EA064014
:1009E0004FF48036C1F3090E704420FB068EDFF809
:1009F000888B20FB08A8DFF8DCAC20FB0A9AD869BA
:100A0000AEF5584E30B17444641B54FB10F4754677
:100A10006400A646D86A9E8C4FEACE2E1FFA87F94C
:100A20007F1C5EFB10F0DDF800E006FB09F920F307
:100A30008F002EF81900B3F822E0B8B27045FFF429
:100A40004DAFC3F808A0C3F80C8099615C611D61CB
:100A500001B0BDE8F08F0000FC4D0008FC49000823
:100A60002DE9F04F8E4681B011464FF0000A4D8CB3
:100A70004A690B698C69D1F80880D1F80C90002D77
:100A800000F0E7800646CDF800E0CF8C022F19D1A8
:100A900096F802C03078357900EB0C2EB07996F8D4
:100AA00008C00EEB054EB57A0EEB006E307B0CEBFA
:100AB000052796F80EC0103607EB004707EB0C67CA
:100AC00022E000BF16F807B096F800E04FEA470CA6
:100AD00007EB4700BD000EEB0B2E16F80CB00EEB2B
:100AE0000B4E16F800B07619F75D16F80CC0305CA6
:100AF0000EEB0B6E96F800B016EB05060BEB072716
:100B000007EB0C4707EB0067D1F804C00EF0FF00BD
:100B1000DFF8C45BDFF8C4BB5CF8200000EB942076
:100B2000CEF307245CF82440DFF85CC704EB902484
:100B30000CEA004CC4F30900844401202CFB059905
:100B40004D682CFB0B88DFF898BB2CFB00F0CEF334
:100B5000074C55F82CC04FEA1E6E0CEB942C55F840
:100B60002E40DFF824E7DFF8085A04EB9C240EEA55
:100B70000C4EC4F3090CE644DFF8F0C92EFB0599CE
:100B800007F0FF052EFB0B88DFF858BB2EFB0C008F
:100B9000D1F804E05EF825C0DFF8B4570CEB942CD4
:100BA000C7F307245EF82440DFF8DCE604EB9C245E
:100BB0000EEA0C4EC4F3090CE644DFF818CB2EFB0A
:100BC00005994FF480352EFB0B882EFB0C00D1F8D5
:100BD00004C0C7F3074E3F0E5CF82EE00EEB942ED8
:100BE0005CF82740DFF8A0C604EB9E240CEA0E4C0C
:100BF000C4F3090EF4442CFB059EDFF8689C2CFB23
:100C00000989DFF85C8E2CFB0808C869AEF5003E48
:100C100030B17244D21A52FB10F27346520096461B
:100C2000C86A8D8C4FEA8E2EDDF800C05EFB10F096
:100C30001FFA8AFE0AF1010A05FB0EFE20F38F005F
:100C40002CF81E00B1F822C01FFA8AF06045FFF4AC
:100C50001CAFC1F80880C1F80C908C614A610B612F
:100C600001B0BDE8F08F0000CC6300082DE9F04F23
:100C7000002782B0B2F822E00C465369D2F8108007
:100C80009169D2F80890D2F80CA0BEF1000F00F0E4
:100C9000178186460194D58C022D25D19EF802C07D
:100CA0009EF800009EF804409EF80C5000EB0C26C5
:100CB0009EF806009EF808C006EB04469EF80A401F
:100CC00006EB00660CEB04209EF80EC09EF8104068
:100CD00000EB05409EF812500EF1140E00EB0C6074
:100CE00004EB052C2EE000BF1EF805609EF800C046
:100CF0006C0005EB450BA8000CEB06261EF804C0A3
:100D000006EB0C461EF80BC00090009806EB0C6634
:100D10000EEB000C1CF805009CF800E01CF80BB072
:100D20000EEB00201CF804E000EB0E40DDF800E0C4
:100D3000E6441EF805509EF800C000EB0B60A64488
:100D40000CEB052C546806F0FF0B54F82B50DFF821
:100D500018BB05EB9125C6F3072154F82110DFF8E5
:100D6000284501EB952104EA0544C1F309052C1936
:100D7000DFF8F85A24FB0BAAC6F3074B360E24FB08
:100D80000599012524FB05F4556855F82BB055F855
:100D900026500BEB912BDFF8F01405EB9B2501EAB5
:100DA0000B41DFF834B9C5F309067118DFF8C06AE2
:100DB00021FB0BAA00F0FF0B21FB0699DFF8AC67C3
:100DC00021FB0644516851F82B60DFF8A4B706EB0D
:100DD0009526C0F3072551F82550DFF8AC1405EB34
:100DE000962501EA0641C5F3090671184FF04B1626
:100DF00021FB0BAADFF87CBA21FB0699DFF8D46847
:100E000021FB06415668C0F30744000E56F8244003
:100E100056F82000DFF8386504EB9524DFF86854B5
:100E200000EB942005EA0445C0F309046519DFF8D6
:100E3000304C25FB06AA25FB0B9925FB04145168B1
:100E40000CF0FF054FEA1C2C51F8255051F82C10DE
:100E500005EB9025DFF8300401EB952100EA054011
:100E60004FF48035C1F3090C604420FB05ACDFF87A
:100E7000F4AB20FB0A9ADFF8889E20FB0949D06971
:100E8000ACF57A3C38B16344A3EB080353FB10F391
:100E9000E0465B009C46D06A958C4FEA4C2CBCB275
:100EA0007F1C5CFB10F0DDF804C06C4320F38F0066
:100EB0002CF81400B2F822C0B8B26045FFF4EBAED3
:100EC000C2F80890C2F80CA091615361C2F810807A
:100ED00002B0BDE8F08F0000030001000100030034
:100EE000002384462DE9F04F83B01046468C8A4695
:100EF000416902698469D0F80880D0F80CE0002EBE
:100F000000F0B881CDF808A0C68C022E3AD19CF82A
:100F100002A09CF800909CF804609CF80AB09CF831
:100F20000C509CF8147009EB0A299CF806A009EBF8
:100F300006499CF8086009EB0A6906EB0B2A9CF845
:100F40000E609CF810B00AEB054A9CF812500AEBB0
:100F5000066A0BEB05269CF816B09CF8185006EBB9
:100F600007469CF81A7006EB0B6605EB072B9CF8FE
:100F70001C509CF81E700CF1200C0BEB054B0BEB7E
:100F8000076B4DE006EB460A4FEA460BCDF804A08E
:100F9000C58C9CF80070B6001CF805A007EB0A2968
:100FA0001CF80BA0019F09EB0A491CF807A000964A
:100FB000009E6644775D96F800C009EB0A690CEB69
:100FC000072A16F80BC00AEB0C4ADDF804C016F825
:100FD0000C70DDF800C00AEB076AB4441CF8057019
:100FE0009CF8006006EB07261CF80B7006EB074622
:100FF000019F1CF8077006EB0766009FBC441CF8B5
:1010000005509CF8007007EB05251CF80B7005EBEC
:10101000074B019D009F1CF805500BEB056BBC4472
:10102000456809F0FF0755F8277007EB9424C9F3CA
:10103000072755F82750DFF8CC7C05EB942507EA05
:101040000447C5F30904E419DFF81C7A24FB07EE12
:10105000DFF8187A24FB0788012724FB07F4476888
:1010600001970095019FC9F307454FEA196957F8A1
:101070002570009D07EB9527019D55F82950DFF855
:10108000849C05EB972509EA0747C5F30909B9448C
:10109000DFF8DC7929FB07EEDFF8D87929FB078830
:1010A000DFF8C87429FB074944680AF0FF0754F8C1
:1010B000277007EB9525CAF3072754F82740DFF878
:1010C000447C04EB952407EA0547C4F30905ED19B0
:1010D000DFF8A47925FB07EEDFF8A07925FB078868
:1010E000DFF8F07525FB07994568CAF307474FEA13
:1010F0001A6A55F8277007EB942755F82A40DFF84D
:1011000004AC04EB97240AEA074ADFF85C77C4F3DF
:101110000905AA44DFF8F05B2AFB07EE06F0FF079B
:101120002AFB0588DFF838592AFB059AD0F8049085
:1011300059F82750DFF8A07505EB9425C6F307246E
:1011400059F82440DFF8BC9B04EB952409EA0549D3
:10115000C4F30905A944DFF8B45B29FB07EEDFF807
:10116000B07B29FB0588DFF8985B29FB05A9D0F83F
:1011700004A0C6F30745360E5AF825505AF826A0A3
:1011800005EB9425DFF87C4B0AEB952A04EA05442D
:10119000DFF8DC53CAF30906341924FB05E6DFF84F
:1011A00074EB0BF0FF0524FB0E8EDFF86C8B24FB39
:1011B0000899446854F82580654D08EB9A28CBF3CC
:1011C000072A54F82AA0DFF83C4B0AEB982A04EAD5
:1011D0000844CAF309084444DFF8408B24FB056641
:1011E000DFF83C5B24FB07EEDFF8387B24FB089933
:1011F0004468CBF307484FEA1B6B54F8288054F837
:101200002B4008EB9A28DFF8FCAA04EB98240AEAA2
:10121000084A4FF48038C4F3090BDA442AFB086605
:101220002AFB05EE2AFB0798D0F81C90A6F580163D
:10123000B9F1000F06D07118891A51FB19F1324625
:1012400049000E46D0F82C90B0F824B0F601DDF835
:1012500008A056FB19F99EB25B1C06FB0BF629F39E
:101260008F092AF81690B0F822A01FFA83F9D14509
:10127000FFF44AAEC0F80880C0F80CE08461416118
:10128000026103B0BDE8F08F0000FF032DE9F04FCD
:1012900082B0134688465C691D6999699A68D3F8DB
:1012A0000C90CDF800905F8C4FF0000EDFF8789A2C
:1012B000DFF878AADFF84CCA002F40D0CDF80480C0
:1012C0004FEA000893F8307038F8020BBE0648BFAA
:1012D00040BA5E6800F0FF07000A56F827B00BEB33
:1012E000912B56F8201001EB9B210CEA0B40C1F327
:1012F0000906301820FB0A2620FB09F2D869A6F55A
:10130000006630B13419641B54FB10F43546640098
:101310002646D86AB3F824B036041FFA8EF70EF1C9
:10132000010E56FB10F0019E0BFB07F720F38F0018
:1013300026F817005E8C1FFA8EF0B042C2D39A6076
:101340000098D86099615C611D6102B0BDE8F08FC2
:10135000030006002DE9F04F81B0568C07460C467D
:10136000506911699369D2F80890002ED2F80CC028
:101370004FF00008DFF8ECE0DFF8B0A9DFF884B93F
:1013800065D0009492F830603C78B50611D55FEADC
:10139000C876FD7806D47E78BF1C06EB042404EBE7
:1013A00005440DE004EB0524BD783F1D04EB054426
:1013B00006E07E78BD78FF1C04EB062404EB0544B0
:1013C000556804F0FF0655F8266006EB9326C4F333
:1013D000072355F82330240C03EB96230BEA06462B
:1013E000C3F30905AD1925FB0AC625FB0E9C4FF07A
:1013F000010925FB09F95568A6F5D85655F824507A
:1014000005EB9323C3F3090404EB440504EB440404
:10141000A144D4690CEB450C34B13018401A50FB90
:1014200014F0314640000646D46AB603009D56FBD0
:1014300014F424F38F06948C04FB08F408F10108DB
:101440001FFA88F825F81460548CA0459ADBC2F87E
:101450000890C2F80CC093615061116101B0BDE801
:10146000F08F0000070006000C000A000A000C00C4
:101470002DE9F04F81B0578C86460C4650691169B2
:101480009369D2F80880002FD2F80CC0DFF8A0983A
:10149000DFF870A860D000945FF0000492F830701C
:1014A0005EF8045BBE0648BF6DBA566805F0FF0BD8
:1014B00056F82B70DFF87CB807EB9327C5F30723AA
:1014C00056F8233003EB97230AEA0747C3F30906CC
:1014D000F71927FB09CC27FB0B864FF00108C5F352
:1014E000074B2D0E27FB08F8576857F82BB00BEB6E
:1014F000932B57F8253003EB9B230AEA0B454FF457
:10150000803BC3F309077D1925FB0BC7DFF828C80B
:1015100025FB0C6CDFF8246825FB0688D569A7F548
:10152000804735B13818401A50FB15F03946400055
:101530000746D56AB2F824B07F03009E57FB15F525
:10154000A7B2641C0BFB07F725F38F0526F817508D
:10155000568CA5B2B542A1D3C2F80880C2F80CC01F
:1015600093615061116101B0BDE8F08F0600030086
:101570000A000F0019001500150019002DE9F04FA1
:1015800081B013465E8C0D465C69D3F81080996972
:10159000D3F80890D3F80CA08646002E4FF0000C2C
:1015A000DFF8602700F08A80CDF80050BEF80260B6
:1015B000BEF80050BEF804000EF1060E45EA0645DE
:1015C00093F83060B70644BF6DBA40BA5E6805F064
:1015D000FF0B56F82B70DFF868B707EB9127C5F3C0
:1015E000072156F8211001EB972102EA0746C1F3C3
:1015F0000907BE19DFF84C7726FB0BAAC5F3074B8A
:101600002D0E26FB0799012726FB07F65F6857F882
:101610002BB00BEB912B57F8251001EB9B2102EA25
:101620000B45DFF80CB7C1F309077D194FF01B1705
:1016300025FB0BAA00F0FF0B000A25FB0799DFF83A
:10164000FC7625FB07655E6856F82B7007EB912743
:1016500056F8201001EB972102EA07404FF480373B
:10166000C1F30906301820FB07A6DFF8DCA620FB33
:101670000A9ADFF8D89620FB0959D869A6F558468A
:1016800038B13419A4EB080454FB10F4B0466400DC
:101690002646D86A9F8CF602009D56FB10F01FFA72
:1016A0008CF60CF1010C7E4320F38F0025F8160018
:1016B0005D8C1FFA8CF0A842FFF478AFC3F8089055
:1016C000C3F80CA099615C61C3F8108001B0BDE85B
:1016D000F08F00000F000A0015001C002A002400F3
:1016E00030002E002E0030002DE9F04F002481B094
:1016F000134686465D8CD3F81480D3F810909E690B
:10170000D3F808A0D3F80CC0DFF8F825002D00F0BE
:101710009C80009193F83050FEE80201AF0644BF70
:1017200040BA49BA5D6800F0FF0B55F82B70DFF83E
:1017300020B607EB9627C0F3072655F8266006EB80
:10174000972602EA0745C6F309077D19DFF80476F4
:1017500025FB0BCCC0F3074B000E25FB07AA012786
:1017600025FB07F55F6857F82BB00BEB962B57F866
:10177000200000EB9B2002EA0B47DFF8C4B5C0F362
:101780000906F71927FB0BC6DFF8CCC501F0FF0BE4
:1017900027FB0CAADFF8A4C527FB0C5C5D6855F895
:1017A0002B70DFF88CB507EB9027C1F3072055F8B5
:1017B000200000EB972002EA0747C0F30905EF1964
:1017C00027FB0B65DFF8946527FB06AADFF87C652D
:1017D00027FB06C75E68C1F3074C090E56F82CC0FC
:1017E00056F821600CEB902C06EB9C2602EA0C408C
:1017F0004FF4803CC6F30901081820FB0C51194D29
:1018000020FB05ACDFF858A520FB0A7AD869A1F5C2
:10181000003140B18844A8EB090858FB10F889460C
:101820004FEA48084146D86A9F8C8902A5B2641CD9
:1018300051FB10F000997D4320F38F0021F8150033
:10184000598CA0B28842FFF465AFC3F808A0C3F872
:101850000CC09E61C3F81480C3F8109001B0BDE8BD
:10186000F08F000024002A0024002D003F003700E4
:1018700049004500450049002DE9F04F002781B09F
:10188000558C8E46536914699169D2F80880D2F854
:101890000CA08446B5F1000F00F0D880CDF800E030
:1018A000BCF80250BCF800E0BCF8060092F830909A
:1018B0004EEA054EBCF8045045EA0045BCF8080065
:1018C0000CF10A0C5FEA896604D59EFA9EFE6DBA99
:1018D00090FA90F0D2F804900EF0FF0B59F82B60BC
:1018E000DFF880B406EB9126CEF3072159F82110DA
:1018F000DFF8109401EB962109EA0649C1F30906C5
:10190000B144DFF8646429FB0BAACEF3074B4FEA1E
:101910001E6E29FB0688012629FB06F9566856F833
:101920002BB00BEB912BDFF8DC1356F82EE00EEB0F
:101930009B2E01EA0B41DFF818B4CEF309067118AB
:10194000DFF8286421FB0BAA05F0FF0B21FB0688BA
:10195000DFF8E86321FB0699516851F82B60DFF846
:10196000E0B306EB9E26C5F3072E51F82EE0E549BD
:101970000EEB962E01EA0641CEF3090671184FF0E0
:101980004B1621FB0BAADFF8E8B321FB0688DFF832
:10199000BC6321FB06915668C5F307492D0E56F826
:1019A000299009EB9E2956F825E0D64DE04E0EEB26
:1019B000992E05EA0945CEF309094D44DFF8A090B8
:1019C00025FB06AA00F0FF06000A25FB0B8825FB75
:1019D0000915516851F8269051F82010C94809EBB3
:1019E0009E2901EB992100EA09404FF48039C1F3A7
:1019F000090E704420FB09AEDFF868A020FB0A8ABC
:101A0000DFF8FC8220FB0858D069AEF57A3E30B191
:101A100073441B1B53FB10F374465B009E46D06A55
:101A2000B2F824904FEA4E2EBDB27F1C5EFB10F040
:101A3000DDF800E009FB05F520F38F002EF8150016
:101A4000B2F822E0B8B27045FFF42AAFC2F80880BD
:101A5000C2F80CA091615361146101B0BDE8F08F30
:101A60001C00150037003F006900780096008800D0
:101A70004E005B00AC00A20037004200BA00B40088
:101A80002DE9F04F82B01446658CD4F81490D4F848
:101A900010A0A769D4F808C0D4F80CE04FF00008F3
:101AA000002D00F0208101910090009808300090F6
:101AB0000838009DD0E9000108350095083D94F8EC
:101AC0003060D5E90023B50603D540BA49BA52BA09
:101AD0005BBA656800F0FF0B55F82B60DFF894B235
:101AE00006EB9726C0F3072755F82770854D07EBBF
:101AF000962705EA0645C7F3090675199E4E25FB8C
:101B00000BEEC0F3074B000E25FB06CC012625FB90
:101B100006F5666856F82BB00BEB972B56F820703D
:101B2000784807EB9B2700EA0B40DFF850B2C7F379
:101B300009063018924E20FB0BEE01F0FF0B20FB44
:101B400006CC7E4E20FB0655606850F82B60DFF80F
:101B500034B206EB9726C1F3072750F8277069487F
:101B600007EB962700EA0640C7F309063018864EB1
:101B700020FB0BEEDFF8E8B120FB06CC734E20FB18
:101B800006506668C1F30745090E56F8255056F809
:101B900021105C4E05EB972501EB952106EA0546E1
:101BA000704DC1F30907BE1926FB05E7DFF858E1C0
:101BB000656826FB0ECC02F0FF0E55F82EE00EEB0A
:101BC000912EC2F3072155F821104E4D26FB0B0034
:101BD0005F4E01EB9E21DFF834B105EA0E45C1F3FB
:101BE000090E7544DFF818E125FB0677484E25FB02
:101BF0000BCCDFF828B125FB0E0E6568C2F3074059
:101C0000120E55F8200055F822203E4D00EB912091
:101C10004B4902EB902205EA0045C2F30900451941
:101C200025FB01703B4F25FB07C1DFF8ECC025FB0E
:101C30000CE7D4F804C003F0FF0E3D4D5CF82EE035
:101C40000EEB922EC3F307225CF82220DFF8B4C01B
:101C500002EB9E220CEA0E4CC2F3090EF444C3F3CD
:101C6000074E2CFB05001B0E2CFB06112CFB0B7CDE
:101C7000676857F82EE057F823700EEB922E214A32
:101C800007EB9E2702EA0E424FF4803EC7F309039A
:101C90009A1822FB0E03224822FB001E2149E0690C
:101CA000A3F5801322FB01CC40B19944A9EB0A09AA
:101CB00059FB10F99A464FEA49094B46E06ADB01A5
:101CC0001FFA88F2019908F1010853FB10F0A38C68
:101CD0005A4320F38F0021F81200618C1FFA88F01C
:101CE0008842FFF4E2AEC4F808C0C4F80CE0A76173
:101CF000C4F81490C4F810A002B0BDE8F08F000042
:101D00002D0024000000FF03C000BE00BE00C00084
:101D1000A200AC00B400BA00420037005B004E00E5
:101D200088009600780069000300010001000300AC
:101D3000030006000C000A000A000C000600030065
:101D40000A000F0019001500150019000F000A0005
:101D500015001C002A00240030002E002E00300048
:101D60001C00150024002D003F00370049004500ED
:101D70004500490069007800960088004E005B002D
:101D8000AC00A20037004200BA00B400002200F00C
:101D9000C7B90EE002684368024408305FEAC37CBA
:101DA00044BF4B445B1E52F804CB43F804CB091FDD
:101DB000F9D150F8041B0029ECD1704770B52DED16
:101DC000028BB0EE608A18EE104A82B062001EBF2D
:101DD000F7EE000AB4EE600AF1EE10FA00F062814C
:101DE000BFEE001AB4EE410AF1EE10FA02BF610034
:101DF000091611F1010F02D1600200F0538110EEBB
:101E0000100A43001B1613F1010F00F0CD804100B2
:101E10001EBF65002D1615F1010F00F0C580120ED2
:101E2000C2F19602182AA8BF04F0004403DA002A7F
:101E3000C4BFD440944008EE904AC00F1CBFB4EE1B
:101E4000688AF1EE10FA05D0AFF3008002B09FED82
:101E5000990A2BE1684600F06DF9F0EE400A10EEA9
:101E6000901AC80F1DD021F0004100EE901A18EE14
:101E7000901A480008BFB0EE680A0DD0000EC0F1FD
:101E800097001828A8BF01F0004103DA0028C4BF5A
:101E9000C140814000EE101AF4EE408AF1EE10FAD3
:101EA00001D1002400E001249FED830AF4EE400AF2
:101EB000F1EE10FA06D50098B0EE001A401E60EE62
:101EC000810A0090BFEE000A30EE800AB7EE001AD9
:101ED00070EE810AC0EE200A20EEA01ADFED771A1C
:101EE0009FED772A01EE212ADFED762A42EE012AC4
:101EF00062EE812A72EEC02A62EEA00A9DED001AFF
:101F000030EE200AB8EEC11ADFED6F0AF0EE411A8A
:101F100040EE201A61EE880A9FED6C2AF4EE420A28
:101F2000F1EE10FA37D4DFED6A2AF4EE620AF1EE30
:101F300010FA2DDA10EE900AC00F06D0FEEE001A4D
:101F400070EEA10AFDEEE01A05E0B6EE002A30EED2
:101F5000822AFDEEC21A11EE900A21EE081AF8EE5E
:101F6000E11A20EE080A31EE611ADFED5A2AF7EE87
:101F7000000A01EE220A00F001F910EE100A4100F9
:101F800009D04200121612F1010F06D1400204D10D
:101F90009FED510A01E09FED510A002C00F0848072
:101FA00002B0B1EE400A81E041000D1615F1010FBB
:101FB00001D1090278D1151615F1010F04D11102D2
:101FC00018BFB0EE480A6FD1650001212D1615F13A
:101FD000010F2FD0120EC2F196022646182AA8BF72
:101FE00006F0004603DA002AC4BFD640964000EE51
:101FF000906AB4EE608AF1EE10FA18BF0021720008
:1020000008BFB0EE601A0DD0120EC2F19702182A66
:10201000A8BF06F0004603DA002AC4BFD6409640A7
:1020200001EE106A31B1F4EE410AF1EE10FA0CBF84
:102030000021012113F1010F06D1420204D1C00F8A
:1020400010D1E40F2AD020E015F1010F10D1620267
:102050000ED1684600F06EF8E40F009813D1002806
:102060001CDC12E0E40F01D1002913E069B106E0A5
:10207000002914BFC00F0020E40F0AD128B102B01C
:102080009FED170A12E0002808DD02B09FED130A49
:102090000CE0002818BF9FED130A05D102B09FED98
:1020A0000E0A03E0B7EE000A02B000BFBDEC028BDF
:1020B00070BD0000FFFFFF7FF304353F1502993E1E
:1020C00011AECC3EC0AA2A3F3BAAB83F000000C7D1
:1020D000010000471872313F0000807F00000000BF
:1020E00000000080000080FF10EE100AF44600F0AF
:1020F00003F800EE100A6047C0F3C7527E3A09DDCC
:10210000182A0CDA6FF07F41D14020EA51004018C4
:102110008843704700F0004008BF40F07E50704791
:102120004018491C1CBFB1F1010100F8012DF9D183
:1021300070470000034610EE100AF44600F004F861
:10214000196000EE100A6047C0F3C75129B1FF299A
:1021500012D07E39A0EBC1507047C0420DD000F0C4
:1021600000424002B0FA80F188407E31494242EAA2
:10217000102000F17A50704700217047F8B50146F1
:1021800010EE100A45002D1615F1010F13D0420074
:102190001FBF10EE903A5C00241614F1010F0AD014
:1021A0005A0008D09FED571AB4EE410AF1EE10FA2A
:1021B0003CD5002045E04200141614F1010F02D175
:1021C000130240F09E8010EE906A73001F1617F104
:1021D000010F01D11C0216D14BB915F1010F12D11B
:1021E000400210D1AFF300809FED470AF1BD7400AB
:1021F000241614F1010F09D1730207D115F1010F53
:1022000001D14002EED0B0EE600AF1BD0AB9084635
:1022100066E015F1010F04D1400202D120EE200A40
:10222000F1BD0020F60F66F3DF700DE09FED371A69
:10223000B4EE410AF1EE10FA09DBAFF300804FF083
:10224000FF40DB0F63F3DF7000EE100AF1BD9FED7E
:10225000301A20EE011A11EE102A4FF07C50D20FE6
:1022600062F3DF7001EE900A31EE811ABDEEC11A01
:1022700011EE100AB8EEC11ADFED261A01EE210A9E
:102280009FED252A01EE020A10EE102A22F00042EC
:1022900001EE102ADFED211AB4EE611AF1EE10FA08
:1022A0001DD49FED1F2AF6EE002A20EE001ADFED66
:1022B0001D3A41EE022A61EE231A22EE800A31EE27
:1022C000801A31EEC00AB7EE003AF7EE001A31EE8E
:1022D000033A70EE211AC3EE211A61EEA00A081823
:1022E000B0EE600A00F020F810EE100A410006D0AF
:1022F0004200121612F1010F03D1400201D1AFF3D7
:102300000080F1BD000065C3FFFFFF7F0100654352
:102310003BAAB83F006031BFBFBF90B90000003397
:102320001354083C9EBFCC3D010010EE100AC0F3D0
:10233000C7520AD4D2B3FF2A37D05218FF2A4CD240
:1023400000EBC15100EE101A7047494232B3FF2A28
:102350002BD0914204D2A0EBC15100EE101A70476D
:10236000521E891AA0EBC25000EE100A192918D883
:10237000C1F17F01C90500EE901AF1EE101A21F0AB
:102380001F0020F4F850E1EE100A20EE200AF1EED2
:10239000100AE1EE101A000925D27047C042E5D1BB
:1023A000704700F0004000EE100A7047C042FCD0B9
:1023B0007F2906D87F31C90500EE901A20EE200A49
:1023C00070474FF0FE4000EE900A20EE200A7F3961
:1023D00010EE100AC0F3C752AFE7C10D41F0FF0184
:1023E000C90500EE101AAFF3008070472DE9F84FD1
:1023F000044601F01FF9002C00F02D812168DFF860
:1024000080B604F13405DFF87C66DFF87C76DFF80F
:102410007C86DFF87C96DFF87CA6594518BF5145CD
:102420002AD0494518BF414526D0B94218BFB1420C
:1024300022D000F021FF1CBFDFF85C3699421BD090
:1024400000F012FF1CBFDFF85426914214D000F0B8
:1024500053FB1CBFDFF8482691420DD000F0F8FE78
:102460001CBFDFF84036994206D000F0EDFE1CBFDD
:10247000DFF8342691424BD1022300226B7059457C
:102480002A7018BF51452AD0494518BF414526D06A
:10249000B94218BFB14222D000F0EEFE1CBFDFF8F7
:1024A000F83599421BD000F0DFFE1CBFDFF8EC25A9
:1024B000914214D000F020FB1CBFDFF8E4259142CC
:1024C0000DD000F0C5FE1CBFDFF8D835994206D00C
:1024D00000F0BAFE1CBFDFF8D025914247D18E46EE
:1024E0007346DEF80010490849001960009023681F
:1024F0001868C10742D501F09DF8009A801A062895
:10250000F5D304F134002021016203224270A2E0DD
:10251000DFF8980581421CBFDFF89425914218D05E
:10252000DFF8903599421CBFDFF88C05814210D04E
:10253000DFF8882591421CBFDFF88435994208D026
:10254000DFF8800581421CBFDFF89C25914240F0F6
:102550007E80022100206970287023681B68A068B3
:1025600040286FF3101378D143F0100379E00B4645
:102570001A461968490849001160B7E7D3F800C046
:10258000A168DFF84405E26800EA0C00084342EA6B
:1025900000012069A26900F0F6F8626A0843216A26
:1025A0000143042A03D1E06A0843216B01436068B8
:1025B000A0F12902062A24BFA0F13F02042A09D370
:1025C000A0F14702022A21BFA0F14F02042A743869
:1025D000042801D241F48011196023685A69606AA5
:1025E000D20840EAC20204280ED1D4F828E0E06AFA
:1025F0004EEA020240B1A16969B9BEF1000F18BFED
:10260000BEF1020F1CD011D35A61204600F008FF22
:1026100000F0C8F842E0B1F5005F0BD1BEF1030F46
:10262000F2D8DFE80EF00F0D0F03EDE7B0F1C07F39
:10263000EAD107E0BEF1020F04D9BEF10301E3D1F4
:10264000C001E1D5402101222962012098E040200B
:10265000032128626970012093E0802808BF43F4B9
:102660008043E1682069A2694FF0140C00F08BF8F8
:1026700022680843216A43EAD003DFF8500443EAA2
:10268000111313602368C318B3FBFCFC4FEA8C00E2
:10269000A862204600F0C4FE00F07CF8206858458F
:1026A00018BF50454CD0484518BF404548D0B842A7
:1026B00018BFB04244D0DFF8181488421CBFDFF8BE
:1026C000D82390423CD0DFF80C3498421CBFDFF88E
:1026D000CC13884234D000F0CFF91CBFDFF8C033F0
:1026E00098422DD000F0C4F91CBFDFF8B823904207
:1026F00026D000F0B9F91CBFDFF8AC1388421FD018
:10270000DFF8A82390421CBFDFF8A433984217D00B
:10271000DFF8A01388421CBFDFF89C2390420FD043
:10272000DFF8983398421CBFDFF89413884207D033
:10273000DFF8902390421CBFDFF8AC3398421BD1E6
:10274000204600F0C9FEA068802804BF0021616017
:10275000E96A20790860286B6A6B4260606838B16A
:10276000092805D2204600F001FF00F023F803E01D
:102770000021A963E9632964002101222962002064
:102780006A70BDE8F28F08436169084342EA0001BC
:10279000E069704795F82820012102F01F0291405E
:1027A0004160704795F828203F2102F01F029140B8
:1027B00081607047A96B00200860E86B2A6C42605A
:1027C00070472DE9F84F04004FF0000B08BF0120BF
:1027D00005D004F134063078012808BF022000F04B
:1027E0003481012737707078012840F027814FF03D
:1027F000020C002786F801C0DFF884A23762206847
:10280000A24FDFF88C82DFF88C92504518BF484504
:102810002AD0404518BFB84226D09B4DA8421CBFC5
:10282000984DA84220D0AA4DA8421CBF9A4DA8425C
:102830001AD0A84DA8421CBF984DA84214D0DFF86A
:10284000AC52A8421CBF964DA8420DD0DFF8A05252
:10285000A8421CBF934DA84206D0DFF89852A84268
:102860001CBF914DA84208D120680068D4F800C070
:1028700040084000CCF8000009E02568D5F800E0E9
:102880004FEA5E004FEA400E2846C0F800E02046BE
:1028900000F0FAFC2068504518BF48452AD0404552
:1028A00018BFB84226D0784988421CBF754A90426A
:1028B00020D0874B98421CBF774988421AD0854A5E
:1028C00090421CBF754B984214D0DFF8201288420A
:1028D0001CBF734A90420DD0DFF8143298421CBFDF
:1028E0007049884206D0DFF80C2290421CBF6E4B24
:1028F00098420DD121680B200A6860F344020B4610
:102900001A60F06890B12068016841F008010CE09D
:10291000216805200A6860F343020B461A60F068DC
:1029200020B12068016841F004010160206800F0D6
:10293000D3F8DFF850C1DFF850E1504518BF4845E3
:102940003ED0404518BFB8423AD0704518BF6045E8
:1029500036D0984218BF904232D088421CBF4F4DAB
:10296000A8422DD0DFF88451A8421CBF4C4DA8428C
:1029700026D0DFF87C51A8421CBF4A4DA8421FD088
:10298000DFF87051A8421CBF474DA84218D0474DF0
:10299000A8421CBF464DA84212D0464DA8421CBFBB
:1029A000454DA8420CD0454DA8421CBF444DA842FD
:1029B00006D0444DA8421CBFDFF82C51A8420FD1CD
:1029C000F06A0568ED0303D5056845F48075056078
:1029D000B06B28B105462E46286840F48070306000
:1029E0002068504518BF484522D0404518BFB8421E
:1029F0001ED0704518BF60451AD0984218BF90424B
:102A000016D088421CBF2549884211D000F034F806
:102A10001CBF234B98420BD000F02AF81CBF214A60
:102A2000904205D000F020F81CBF1F49884202D117
:102A300000F00DF808E000F010F805E04FF4006336
:102A4000336286F800B0BB465846BDE8F28F026894
:102A5000034642F001021A60704701460A460868C0
:102A600040F0010010607047DFF8883098427047EE
:102A7000DFF87C1088427047DFF870209042704782
:102A800010000240880002407000024058000240DE
:102A90004000024028000240B800024028040240E2
:102AA0005804024088040240B80402400854025806
:102AB0001C54025830540258445402585854025876
:102AC0006C540258805402583F8010FEF8ABFDA7AA
:102AD000A000024010040240DFF82410DFF8242098
:102AE000DFF824307047000094540258400402403C
:102AF00070040240A0040240044B99427047000059
:102B000010040240B8000240A0000240400402400D
:102B10002DE9FE4F0021DFF8005901912A684FF49A
:102B20001653044604F13405DFF8F0B8B2FBF3F3B2
:102B30000293686A009008220123DFF87879014641
:102B4000DFF874890E680168D4F800C0DFF86C996A
:102B5000DFF86CA9DC4518BFD44531D0CC4518BF8F
:102B6000C4452DD0BC451CBFDFF858E9F44527D03B
:102B7000DFF858EAF4451CBFDFF84CE9F4451FD0F4
:102B8000DFF84CEAF4451CBFDFF840E9F44517D004
:102B9000DFF840EAF4451CBFDFF834E9F4450FD014
:102BA000DFF834EAF4451CBFDFF828E9F44507D024
:102BB000DFF828EAF4451CBFDFF824EAF44541D1E8
:102BC00000F03DFB02FA00F0064200F09580DC4583
:102BD00018BFD44531D0CC4518BFC4452DD0BC4515
:102BE0001CBFDFF8E0188C4527D0DFF8E0098445EA
:102BF0001CBFDFF8D40884451FD0DFF8D4198C45FA
:102C00001CBFDFF8C808844517D0DFF8C809844521
:102C10001CBFDFF8BC188C450FD0DFF8BC09844519
:102C20001CBFDFF8B008844507D0DFF8B0198C4529
:102C30001CBFDFF8AC0984454AD1DCF8000000F085
:102C4000040049E0DFF80869B4451CBFDFF80469F7
:102C5000B44518D0DFF80069B4451CBFDFF8FC6844
:102C6000B44510D0DFF8F868B4451CBFDFF8F4684D
:102C7000B44508D0DFF8F068B4451CBFDFF8006643
:102C8000B44540F0D682DCF8006095F828C04FF0DB
:102C9000040E0CF01F0C0EFA0CFE11EA0E0FCDF80C
:102CA00000E000F040825FEA467E40F13C820099FD
:102CB0004160300440F1ED81F10300F12C8269693B
:102CC000002900F0B682204603B0BDE8F04F084767
:102CD0006046006800F0080070B1DCF80000614652
:102CE00020F00400086000F0AAFA82400098826098
:102CF000296A41F00101296200F0A1FA26FA00F1E7
:102D0000C9073DD52168594518BF51452ED04945C1
:102D100018BF41452AD0B9421CBFDFF8A82791420D
:102D200024D000F0A9FA1CBFDFF89C2791421DD0E7
:102D300000F09AFA1CBFDFF89427914216D0DFF812
:102D4000942891421CBFDFF8882791420ED000F0F2
:102D50007FFA1CBFDFF87C27914207D000F074FA9D
:102D60001CBFDFF87C28914240F0938049690A0635
:102D700006D5834000988360296A41F002012962E8
:102D800095F82810042000F056FA06423FD021683A
:102D9000594518BF51452FD0494518BF41452BD043
:102DA000B9421CBFDFF81C27914225D0DFF81C3840
:102DB00099421CBFDFF8102791421DD000F054FA51
:102DC0001CBFDFF80837994216D0DFF80828914277
:102DD0001CBFDFF8FC2691420ED0DFF8FC37994289
:102DE0001CBFDFF8F026914206D000F02DFA1CBF80
:102DF000DFF8EC3799424ED1D1F800C05FEA8C720F
:102E000005D500998860286A40F00400286295F88A
:102E10002800102100F01F0081400E425CD0206885
:102E2000584518BF504530D0484518BF40452CD0B4
:102E3000B8421CBFDFF88C26904226D0DFF88C37D2
:102E400098421CBFDFF8802690421ED0DFF8802712
:102E500090421CBFDFF87436984216D0FFF70CFE84
:102E60001CBFDFF86C2690420FD0DFF86C37984219
:102E70001CBFDFF86026904207D0DFF86027904241
:102E80001CBFDFF85C37984209D1006800F00800E9
:102E900008E00A6874E70B46D3F800C0B7E700689B
:102EA00000F00400C0B100988160206801684A0306
:102EB00007D5006801030BD5696969B120468847C9
:102EC0000AE00168CA0503D4036823F0080303601D
:102ED000E96809B12046884795F82800202100F0CC
:102EE0001F0081400E423FD02068584518BF504512
:102EF00031D0484518BF40452DD0B8421CBFDFF83F
:102F0000C425904227D0DFF8C43698421CBFDFF8B2
:102F1000B865B0421FD0DFF8B82690421CBFDFF87A
:102F2000AC35984217D0DFF8AC66B0421CBFDFF872
:102F3000A02590420FD0DFF8A03698421CBFDFF8E2
:102F40009465B04207D0DFF8942690421CBFDFF8AA
:102F50009036984203D1006800F0100003E002466A
:102F6000106800F00200002846D0009881602068B8
:102F70006978042926D1026822F0160202602068CE
:102F8000416921F080014161E868002804BF696956
:102F9000002904D02068026822F00802026095F837
:102FA0002810009A3F20002300F045F9906001208E
:102FB0006870E9692B70002920D0204603B0BDE875
:102FC000F04F084701684A0307D5006801030FD492
:102FD000296989B1204688470EE00168CA0507D4EF
:102FE0000368002123F0100303600120687029703A
:102FF000A96809B120468847286A002800F019818D
:10300000296AC80744D504226A702068584518BF49
:10301000504525D0484518BF404521D0B8421CBF77
:10302000DFF8A01488421BD000F022F91CBFDFF8A3
:103030009834984214D0DFF8981588421CBFDFF806
:103040008C2490420CD000F00BF91CBFDFF88014E8
:10305000884205D000F000F91CBFDFF878349842B0
:103060002368186840084000194608600298019AD1
:10307000521C90420192216802D30A68D307F6D409
:103080000868C1074CBF032201226A700020287023
:10309000C8E0B0063FD42068584518BF50452ED030
:1030A000484518BF40452AD0B8421CBFDFF8141469
:1030B000884224D000F0DCF81CBFDFF80C349842C2
:1030C0001DD0DFF80C1588421CBFDFF800249042A9
:1030D00015D000F0C5F81CBFDFF8F41388420ED0FD
:1030E00000F0BAF81CBFDFF8EC33984207D0DFF8E5
:1030F000EC1488421CBFDFF8E824904206D1034656
:103100001946186820F00800086004E00646326896
:1031100022F004020260E968002918D0204603B0BA
:10312000BDE8F04F08474FF0020E0EFA0CFE11EA10
:103130000E0FCDF800E05DD05FEA867E5AD500998B
:103140004160300409D5F1034DD42969002970D0BC
:10315000204603B0BDE8F04F0847B00643D42068CE
:10316000584518BF50452ED0484518BF40452AD075
:10317000B8421CBFDFF84C13884224D000F078F826
:103180001CBFDFF8443398421DD0DFF84414884256
:103190001CBFDFF83823904215D000F061F81CBF47
:1031A000DFF82C1388420ED000F056F81CBFDFF871
:1031B0002433984207D0DFF8241488421CBFDFF87C
:1031C0002024904206D103461946186820F01400C6
:1031D000086004E00646326822F00A02026001211B
:1031E000002269702A70A96819B3204603B0BDE8AF
:1031F000F04F084702FA0CF211421AD0360718D5E0
:103200002768396821F00E013A46116095F8286068
:103210000121002206F01F06B3404360012028620E
:1032200069702A70A96921B1204603B0BDE8F04F4A
:103230000847BDE8F78F01F01F018840704795F8F7
:10324000280000F01F007047DFF89023914270477C
:10325000DFF8842391427047DFF87C239042704767
:10326000DFF8703398427047DFF86423914270476B
:10327000DFF8582390427047DFF85023914270479F
:1032800094540258406D70472DE9F84F0446DFF81A
:103290008CA1A56DDFF82CB200952668DFF814C26A
:1032A000DFF814E2DFF81482DFF81492564518BFF5
:1032B0004E4543D0464518BF76453FD0664518BFBA
:1032C0005E453BD0DFF8040386421CBF7E4FBE4202
:1032D00034D0DFF8FC0286421CBF7C4886422DD0E9
:1032E000DFF8F072BE421CBF7948864226D0DFF874
:1032F000E80286421CBF774FBE421FD0DFF8DC02D7
:1033000086421CBFDFF8D802864217D0904FBE42DB
:103310001CBF9048864211D08F4886421CBF8F4FF9
:10332000BE420BD08E4886421CBF8E48864205D0D6
:103330008D4886421CBFAB4886425BD1606EA76E4B
:103340004760E06E10B1206F676F4760564518BF49
:103350004E4525D0464518BF764521D0664518BF55
:103360005E451DD0994886421CBF5748864217D0FB
:10337000974886421CBF5548864211D095488642E0
:103380001CBF534886420BD0934886421CBF51480D
:10339000864205D0914886421CBF9148864215D18D
:1033A00094F85C00DDF800B03F2500F01F00854078
:1033B000CBF80850356825F4802535607360A06827
:1033C000402825D0B160F260BDE8F18F60488642A8
:1033D0001CBF6048864210D05F4886421CBF5F48D1
:1033E00086420AD05E4886421FBF5E4886425E48DB
:1033F000864202D07B488642E6D194F85C70012078
:1034000007F01F07B84068607360A0684028D9D1F2
:10341000B260F160D8E700000C000020100002400C
:1034200070B50168704A91421CBF254B994229D062
:10343000224CA1421CBF204A914223D01D4B9942ED
:103440001CBF204CA1421DD0FFF716FF1CBF1E4B16
:10345000994217D05E4CA1421CBF1C4A914211D028
:10346000FFF74AFB1CBF1A4CA1420BD0FFF7F0FE3E
:103470001CBF184B994205D0584CA1421CBF584E56
:10348000B14211D101F0FF02890A103A1825B2FBAE
:10349000F5F20FF2981302F0070489021E5D042A68
:1034A000C66503D3091D01E0090A090281650846C2
:1034B00070BD000070000240580002404000024011
:1034C0002800024088000240B80002402804024060
:1034D0005804024088040240F0B5016801231C4DE5
:1034E0000A46A9421CBF1B4EB14211D01A4FB94225
:1034F0001CBF1A4DA9420BD0194EB1421CBF194F27
:10350000B94205D0184DA9421CBF364EB14208D170
:1035100001F0FF04083C1421344AB4FBF1F43449AF
:103520000CE001F0FF043349103C18258A18A92A41
:10353000B4FBF5F438BF08342F49304A01EB84015D
:1035400004F01F04A340016642668366F0BD0000DC
:10355000085402581C54025830540258445402581B
:10356000585402586C54025880540258017900296A
:1035700000D17047092970B527D20268204B9A42C2
:103580001CBF204DAA4211D01F4EB2421CBF1F4B80
:103590009A420BD01E4DAA421CBF1E4EB24205D00D
:1035A0001D4B9A421CBF0F4DAA4204D11B4A02EB8D
:1035B00081041B4A03E01B4B1B4A03EB8104026797
:1035C0000122491E8A40C466426770BDA0000240C5
:1035D000100402404004024070040240A004024073
:1035E000B804024094540258100002408058025817
:1035F00000580258F0FBFDBF00080240800802405E
:10360000085402581C54025830540258445402586A
:10361000585402586C54025880540258FC580258AE
:1036200040590258FC0802404009024000061016AA
:103630000006101601484068704700BF00000020D7
:103640002DE9F04704460025D4E900010201A8460F
:10365000DFF8807722D5636E4BB1B3F5801F0BD0B6
:10366000B3F5001F15D0B3F5401F09D014E0FA6977
:1036700042F40032FA6105E0022100F0A7FB0546A2
:1036800028000AD1396C606E21F44011014339647D
:1036900004E000F095FBF2E70125A846D4E900011B
:1036A000C3051CD5A26D042A17D8DFE802F0030E6B
:1036B0001205050000F07AFB28000FD1396CA06DCF
:1036C000C90840EAC101396409E000F07EFB054603
:1036D000F2E7002100F070FBF9E70125A846D4E9E4
:1036E0000001420504F1840625D5336A73B1B3F5B0
:1036F000001F16D0B3F5800F17D0B3F5C00F1CBF55
:10370000B3F5000FB3F5200F02D012E000F04EFB2E
:1037100028000FD1B96C306A21F460010143B9640B
:1037200009E000F052FB0546F2E7002100F044FBFF
:10373000F9E70125A846D4E90001020525D5736AF9
:1037400073B1B3F1807F16D0B3F1007F17D0B3F11E
:10375000407F1CBFB3F1806FB3F1A06F02D012E0C5
:1037600000F024FB28000FD1B96C706A21F0E061F1
:103770000143B96409E000F028FB0546F2E70021A7
:1037800000F01AFBF9E70125A846D4E900018201FF
:103790001AD5E36C43B1102B04D0202B0DD0302B65
:1037A00002D00FE000F002FB28000CD1F96BE06CB6
:1037B00021F030010143F96306E0022100F006FB2D
:1037C0000546F1E70125A846D4E90001C20423D546
:1037D000E36D63B1B3F5805F14D0B3F5005F15D02E
:1037E000B3F5405F18BFB3F5804F02D012E000F090
:1037F000DDFA28000FD1396CE06D21F4E04101437E
:10380000396409E000F0E1FA0546F2E7002100F032
:10381000D3FAF9E70125A846D4E90001820422D5AC
:10382000236E93B1B3F5803F0BD0B3F5003F15D0B5
:10383000B3F5403F1CBFB3F5802FB3F5A02F04D0E4
:103840000FE0012100F0C2FA054628000AD1396CC8
:10385000206E21F4E0210143396404E000F0ABFA6A
:10386000F2E70125A846D4E90001420422D5B36A53
:1038700093B1B3F1805F0BD0B3F1005F15D0B3F11A
:10388000405F1CBFB3F1804FB3F1A04F04D00FE0F5
:10389000012100F09BFA054628000AD1B96CB06AF4
:1038A00021F0E0410143B96404E000F084FAF2E75A
:1038B0000125A846D4E9000102041AD5E36E43B1FC
:1038C000B3F1805F03D0B3F1005F0BD00FE000F0E5
:1038D0006DFA28000CD1396CE06E21F040510143A3
:1038E000396406E0012100F071FA0546F1E701258F
:1038F000A846D4E90001C30118D5A26C032A13D845
:10390000DFE802F004020D0400F050FA28000CD1A8
:10391000F96BA06C890840EA8101F96306E0022195
:1039200000F054FA0546F1E70125A846D4E9000164
:1039300043023FD5DFF8C499D9F8002042F48072E1
:10394000C9F80020FFF776FE8246D9F80000C105CD
:1039500006D4FFF76FFEA0EB0A006528F5D327E039
:10396000280026D1386EF16A00F4407001F44071ED
:1039700088420BD0386E396E41F4803139663A6E28
:1039800020F4407022F480323A663866F06AB0F56E
:10399000807F2BD1FFF74EFE8146386E820725D4FB
:1039A000FFF748FEA0EB090041F289318842F4D3C9
:1039B0000325A8462278D10738D5A06F68B108281A
:1039C00007D010282DD018281CBF2028282804D064
:1039D0002AE0012100F0FAF90546280025D1796C8A
:1039E000A06F21F03801014379641FE0F06A00F410
:1039F0004072B2F5407F09D13968DFF80C2902EA3C
:103A0000101221F47C511143396003E03B6823F428
:103A10007C533B60386EF16AC1F30B010843386692
:103A2000C8E700F0C8F9D7E70125A84621788A073A
:103A300019D5606F052814D8DFE800F007031007D8
:103A40000707012100F0C2F9054628000AD1796C68
:103A5000606FC90840EAC101796404E000F0ABF985
:103A6000F2E70125A84621784A0719D5F06805280C
:103A700014D8DFE800F0070310070707012100F062
:103A8000A5F9054628000AD1B96CF068C90840EAD2
:103A9000C101B96404E000F08EF9F2E70125A846FF
:103AA00021788A0621D5B06888B1B0F1805F0BD04B
:103AB000B0F1005F14D0B0F1405F1CBFB0F1804F97
:103AC000B0F1A04F03D00EE000F07FF905462800CA
:103AD0000AD1796CB06821F0E0410143796404E0D7
:103AE00000F06EF9F2E70125A84621784A0621D5B3
:103AF000706988B1B0F5806F0BD0B0F5006F14D04D
:103B0000B0F5406F1CBFB0F5805FB0F5A05F03D08B
:103B10000EE000F05AF9054628000AD1B96C706928
:103B200021F4E0510143B96404E000F049F9F2E7FF
:103B30000125A84621780A0621D5B06988B1B0F5DB
:103B4000005F0BD0B0F5804F14D0B0F5C04F1CBF54
:103B5000B0F5004FB0F5204F03D00EE000F035F97E
:103B6000054628000AD1B96CB06921F460410143CF
:103B7000B96404E000F024F9F2E70125A8462178B1
:103B80000A0710D5D4F88000B0F5805F04D100F0AA
:103B900017F908B14FF00108796CD4F8800021F4CE
:103BA0004051014379642178CA060ED53069B0F5D9
:103BB000807F04D100F004F908B14FF00108B86C1F
:103BC000326920F440701043B864D4E90001030363
:103BD00019D5F26932B1B2F5803F0FD0B2F5003F8E
:103BE00003D00EE000F0F1F8054628000AD1B96CC8
:103BF000F06921F440310143B96404E000F0E0F8D9
:103C0000F2E70125A846D4E9000143031BD5326839
:103C1000B2F5801F06D0B2F5001F0ED0B2F5401FDE
:103C200002D00EE000F0C2F828000BD1796C3068A9
:103C300021F440110143796405E000F0BCF8054629
:103C4000F2E70125A846D4E90001C30317D5226D88
:103C50001AB1B2F5803F0BD00FE000F0A7F82800B2
:103C60000CD1F96B206D21F480310143F96306E03A
:103C7000022100F0ABF80546F1E70125A846D4E99A
:103C80000001830004D500F09BF808B14FF0010853
:103C9000D4E9000182031AD5E36F6BB1B3F5807FDD
:103CA00006D0B3F5007F18BFB3F5407F04D00CE019
:103CB000FA6942F40032FA612A0007D17B6CE26FA4
:103CC00023F4407313437B6401E00125A846C2023C
:103CD00005D53B6C226F23F0004313433B64850200
:103CE00005D53B6CA26E23F0807313433B64450003
:103CF00009D5D7F800C02CF4004CC7F800C03B68C9
:103D0000326B13433B60002805D5FB6B626D23F0DB
:103D100040531343FB63050205D57B6C726823F4A3
:103D2000400313437B6411F0010104D000F04DF80F
:103D3000010018BF8046D4E9000111F0020305D04C
:103D4000012100F043F8010018BF8046D4E90001CA
:103D500011F0040305D0022100F038F8010018BF6B
:103D60008046D4E9000111F0080305D0002100F0DD
:103D700023F8010018BF8046D4E9000111F01003B8
:103D800004D000F018F8010018BF8046D4E9000103
:103D900011F0200302D000F013F820B9B8F1000FA1
:103DA00008BF002000D00120BDE8F087F86940F48A
:103DB0000030F8617047012104F1280000F004BBD5
:103DC000022104F1280000F0FFBA002104F10800EC
:103DD00000F0A2BA1044025878B5024689B0DFF864
:103DE000EC06DFF8EC46DFF8EC56DFF8EC6600296D
:103DF00008BFB2F5807F12D1316D01F007010429AF
:103E00003ED8DFE811F0E40060003E0072000500DB
:103E100000F049F965D509B100F0BFB8B9E0002953
:103E200008BFB2F5806F16D1B16D11F460013BD0BF
:103E3000B1F5001F47D0B1F5800F22D0B1F5C00F0A
:103E400053D0B1F5000F1BD100F02DF949D509B1C0
:103E500000F0A3B89DE0002908BFB2F5006F1BD1A8
:103E6000B16D11F0E0611FD0B1F1807F2BD0B1F1C5
:103E7000007F06D0B1F1407F37D0B1F1806F04D020
:103E80000EE13068810025D40AE100F00CF928D554
:103E900009B100F082B87CE0002908BFB2F5805F6C
:103EA00026D1316D11F4E04100F09180B1F5805FD1
:103EB00009D0B1F5005F0AD0B1F5405F15D0B1F57A
:103EC000804F0CD0ECE03068010151D4E8E032685A
:103ED0009100FBD5684600F027F90098E1E000F07A
:103EE000E2F85AD5002958D153E0DFF8F005D8E0C0
:103EF000002908BFB2F5005F27D1316D11F4E02130
:103F000010D0B1F5803F00F08A80B1F5003F0CD0B1
:103F1000B1F5403F0ED0B1F5802F0FD0B1F5A02FF5
:103F200010D0BDE000F07BFCBBE03068810000F108
:103F30007D80B5E030684107FBD57FE03068C10582
:103F4000F7D584E03268910398E0002908BFB2F504
:103F5000002F2FD1B16D11F4403106D0B1F5803F63
:103F60000BD0B1F5003F10D09AE030680101FBD5CD
:103F700003A800F0ADF8039893E030688100F3D512
:103F8000684600F0D1F802988BE000F08CF804D578
:103F900019B93168C1F3C10153E03268D30502D5C4
:103FA000B1F1805F53D03268930379D5B1F1005FEE
:103FB00077D075E0002908BFB2F5803F13D1F06CCF
:103FC00010F4803003D0B0F5803F04D068E0306852
:103FD000810158D464E03068010161D503A800F084
:103FE00077F805985DE0002908BFB2F5804F33D11E
:103FF000B16D11F0E0410FD0B1F1805F0FD0B1F1A0
:10400000005F10D0B1F1405F15D0B1F1804F1BD0EF
:10401000B1F1A04F1DD043E000F04BF841E0306813
:10402000010138D43CE03068810039D5684600F0A1
:104030007BF8019835E03068410731D53268C2F32A
:10404000C10125FA01F02CE03068C10528D52046D1
:1040500027E03268910311E0002908BFB2F5004F54
:104060001ED1316D11F0405106D0B1F1805F07D003
:10407000B1F1005F0CD013E031688A0311D40FE076
:10408000306881010CD506A800F004F9079808E013
:104090003068010104D503A800F01AF8049800E084
:1040A00000200AB070BDF16C3268530701F0405136
:1040B000704780B500F09BFBDFF82424DFF8241460
:1040C0001368C3F30212895C01F01F01C84002BDEE
:1040D00030B500F082F8C2F30015DA6BC1F3053198
:1040E00000F088F81DD000F07EF802D0022C06D037
:1040F00008E000F0B5F8996B00F04CF807E09FED90
:10410000802A01E09FED7F2A996B00F053F8996BAC
:1041100000F095F8996B00F083F8996B00F073F854
:1041200001E000F031F82BE030B500F056F8C2F3B2
:1041300000255A6CC1F3055100F05CF81DD000F069
:1041400052F802D0022C06D008E000F089F8196C71
:1041500000F020F807E09FED6A2A01E09FED692A50
:10416000196C00F027F8196C00F069F8196C00F070
:1041700057F8196C00F047F801E000F005F800BFAF
:1041800080ED020A30BD000000229FED600A02604F
:1041900042607047F7EE001AC1F3080101EE101AF1
:1041A000B8EE411A31EE000A70EE211A20EEA10A93
:1041B00070470000DFED561AC2EE200AC1F3080175
:1041C00001EE101AB8EE411A00EE211AB7EE000AFD
:1041D00031EE000A20EE800A7047DFF8FC329C6A5C
:1041E000996ADA6A704714F0030400EE901AF8EE48
:1041F000600A7047C2F3CC025543002900EE105A02
:10420000B8EE400A7047C1F3066100EE901AF8EE6E
:10421000600A70EE810A80EE200ABCEEC00A704788
:10422000C1F3064100EE901AF8EE600A70EE810AC2
:10423000C0EE200AFCEEE00AC0ED010A7047B7EEBE
:10424000001AC1F3462100EE901AF8EE600A70EEF3
:10425000810AC0EE200AFCEEE00AC0ED000A7047B9
:1042600019689FED2B1A20EE010A8C060CD51968EF
:10427000DFF86022C1F3C101CA4001EE102AB8EE96
:10428000411AC1EE200A70479FED222AC2EE200A91
:104290007047000030B5DFF840329C6A996ADD6AE9
:1042A0005A6B05F00105C1F30511FFF7A3FF21D0FB
:1042B000FFF799FF03D0022C0AD006D30BE0FFF7DB
:1042C000CFFF196BFFF766FF0AE09FED0E2A04E0AF
:1042D0009FED0B2A01E09FED0F2A196BFFF76AFF94
:1042E000196BFFF7ACFF196BFFF79AFF196BFFF71C
:1042F0008AFF01E0FFF748FF42E70000004802584C
:1043000020BCBE4B0024744ACFFFFF000000000019
:10431000000000390024744CF8B500F0CFF801D14A
:104320000120F2BD316821F080613160FFF782F930
:1043300007463068010106D5FFF77CF9C01B03284A
:10434000F7D30320F2BDB06A296820F47C3040EA3C
:10435000013000F097F8B063F16A686921F0C0019C
:1043600000F0A8F8A86921F0200100F0A3F821F0DE
:104370001001F162F06B00F07FF8F063F06A40F03A
:104380001000F0621CB9F06A40F4002004E0012C37
:1043900004D1F06A40F48010F06203E0F16A41F465
:1043A0000011F162326842F080623260FFF742F938
:1043B00004463068010105D4FFF73CF9001B0328CF
:1043C000F7D3BEE70020F2BDF8B500F077F801D1D1
:1043D0000120F2BD316821F080513160FFF72AF9E8
:1043E00007463068810006D5FFF724F9C01B032873
:1043F000F7D30320F2BDB06A296820F07C7040EA50
:10440000015000F03FF83064F16A686921F44061BE
:1044100000F050F8A86921F4007100F04BF821F485
:104420008071F162706C00F027F87064F06A40F4FB
:104430008070F0621CB9F06A40F4800004E0012C46
:1044400004D1F06A40F40000F06203E0F16A41F048
:104450008071F162326842F080523260FFF7EAF810
:1044600004463068810005D4FFF7E4F8001B0328F8
:10447000F7D3BEE70020F2BDE9696FF3CF0040EA51
:10448000C1007047B062A9686868EA68491E4902BD
:10449000401EC0F30800521E01F47E41120408437E
:1044A000296902F4FE021043491E090601F0FE418B
:1044B000084370470143F162F16A70470546064EB2
:1044C000B06A0C4600F003000328704740787D0175
:1044D00000093D000090D003004402580080BB005A
:1044E00020440258BC6300082DE9F04104008846CE
:1044F0005AD0DFF85C73386800F00F00404502D2F4
:1045000000F0D0F850D12078DFF84853420706D5A4
:104510002069A96901F07001814200F0E2F8207879
:10452000020706D56069E96901F07001814200F077
:10453000D1F82078C20606D5A069E96901F4E061E6
:10454000814200F0C0F8207882060AD5E069296A25
:1045500001F07001814204D22A6A22F070021043F5
:1045600028622078820706D5E068A96901F00F016A
:10457000814200F0A1F82078C20731D5A969A0686E
:1045800021F470610143A9616068022802D12968A1
:104590008A0308E0032802D129688A0103E0012880
:1045A00003D12968CA0503D42CE02B68590729D503
:1045B0002A69D20840EAC2002861FFF73BF80646A4
:1045C0002869616800F03800B0EBC10F08D0FFF730
:1045D00031F8801B41F289329042F1D303205FE031
:1045E0002078820706D5E068A96901F00F018842AA
:1045F00000F062F8386800F00F00804504D200F047
:1046000051F801D001204BE02078420706D52069FF
:10461000A96901F07001884200F063F82078020770
:1046200006D56069E96901F07001884200F052F82E
:104630002078C20606D5A069E96901F4E0618842E4
:1046400000F041F8207881060AD5E0692A6A02F074
:104650007002904204D2296A21F070010843286256
:1046600000F046F8AA69DFF80012C2F303228B5C5F
:10467000AC69DFF8E45104F00F04095D03F01F0397
:10468000D840DFF8D83101F01F0120FA01F21A609A
:104690002860DFF8D0010068BDE8F04100F0EEB816
:1046A000BDE8F0813968090948EA011139603A68C2
:1046B00002F00F024245704704D2AA69120940EA8B
:1046C0000210A861704704D2EA6922F4E062104344
:1046D000E861704704D2EA6922F070021043E86191
:1046E000704704D2AA6922F070021043A861704793
:1046F00030B5584B5A48196911F0380104D01029C7
:104700000AD018290AD069E01A68940667D5196892
:10471000C1F3C101C84030BD544830BD9C6A996A9C
:10472000DD6A5A6B05F00105C1F30511C2F3CC0235
:104730005543002900EE105AB8EE400A4CD014F050
:10474000030400EE901AF8EE600A02D0022C20D08A
:1047500022E019689FED3A1A20EE010A8A0608D570
:104760001968C1F3C101C84000F03CF8C1EE200A4D
:1047700003E09FED342AC2EE200A186BF7EE001A10
:1047800000F02EF831EE000A70EE211A20EEA10A98
:1047900013E09FED2D2A01E09FED2C2A186BDFED31
:1047A000281AC2EE200A00F01BF800EE211AB7EE1C
:1047B000000A31EE000A20EE800A186BC0F3462092
:1047C000401C00EE900AF8EE600A80EE200ABCEE73
:1047D000C00A10EE100A30BD002030BD244830BDA4
:1047E000C0F3080001EE100AB8EE411A704710B588
:1047F000FFF77EFF1F4A1C4B11681268164CC1F36D
:104800000321595C02F00F0201F01F01C840206033
:104810009A5C124902F01F02D040086010BD80B5BA
:10482000FFF7E5FF00F008F8C3F30212FFE7895C29
:1048300001F01F01C84002BD0F4A0B4913687047C1
:10484000000000390024744C20BCBE4B0024744A84
:1048500000200052004402580C00002010000020EC
:104860000090D00308000020BC63000840787D0160
:1048700000093D00184402581C44025838B504464B
:104880000D4D2878A8B10D4A4FF47A711368B1FB29
:10489000F0F0B3FBF0F000F052F850B9102C08D251
:1048A000002221464FF0FF3000F021F8AC600020DC
:1048B00032BD012032BD00BF000000200C000020EE
:1048C0000901020002D4454881547047444B02F06C
:1048D0000F021A4402F8041C704742490A6860F348
:1048E0000A2240F2FA5060F31F420A60704770B526
:1048F0003C4B1C68C4F302230124C3F10705052DBA
:104900002EBF0F2504FA05F56D1E1E1D072E34BFA0
:104910000023DB1E2940994004FA03F35B1E1A4072
:104920001143BDE87040CBE7010007D4012200F03D
:104930001F018A402C4B400943F820207047401E3D
:10494000B0F1807F10B501D3012010BD2749284A5E
:104950004860F020107000238B6007240C6000205A
:1049600010BDBFF35F8F23480022016821F480311E
:104970000160026770471F4940F00100086708683E
:1049800040F480300860BFF34F8FBFF36F8F7047E4
:1049900010B5427818490A608B685B085B008B6031
:1049A00042684A60C27A037B447B120642EA037281
:1049B000837A42EAC342837B42EA8442C47B42EA6E
:1049C0004342437A42EA0442047A007842EA0322EC
:1049D00042EA440202438A6010BD000000E400E0A5
:1049E00018ED00E00CED00E000E100E010E000E078
:1049F00023ED00E024ED00E098ED00E00000000071
:104A00000090C00101A850010138110303B8F00063
:104A10000348B1020460410204F0010406C0A00092
:104A2000065061020768F10107F8B10309789101A6
:104A3000090852030A20E2020AB0A2040AC0600078
:104A40000A5021020B68B1010BF871030D78510176
:104A50000D0812030E20A2020EB0620410800101A4
:104A60001010C2021128520211B812041338F201B8
:104A700013C8B20314E04203147003050FB83000EA
:104A80000F48F1011060810110F041031270210103
:104A90001200E2021318720213A832041578D10032
:104AA000150892021620220216B0E2031830C20145
:104AB00018C0820319D812031968D3041978910019
:104AC000190852021A20E2011AB0A2031C30820116
:104AD0001CC042031DD8D2021D6893041F38320146
:104AE0001FC8F20220E082022070430422F022025A
:104AF0002280E303239873032328340515A81000AC
:104B00001538D1011650610116E02103186001012A
:104B100018F0C10219085202199812041B68B1005A
:104B20001BF871021C1002021CA0C2031E20A2016D
:104B30001EB062031FC8F2021F58B3041F68710041
:104B40001FF831022010C20120A08203222062013E
:104B500022B0220323C8B20223587304252812016D
:104B600025B8D20226D062022660230428E0020281
:104B70002870C303298853032918140524604100B1
:104B800024F00102250892012598520327183201CA
:104B900027A8F20228C08202285043042A20E200FB
:104BA0002AB0A2022BC832022B58F3032DD8D2010F
:104BB0002D6893032E8023032E10E4042E20A200E0
:104BC0002EB062022FC8F2012F58B30331D89201E0
:104BD000316853033280E3023210A40434E042010E
:104BE0003470030335889302351854043798330220
:104BF0003728F4033840840338D044051C90000063
:104C00001C20C1011D3851011DC811031F48F100AE
:104C10001FD8B10220F04102208002042250A100DE
:104C200022E0610223F8F1012388B20325089201F2
:104C30002598520326B0E2022640A30426506100C4
:104C400026E0210227F8B1012788720329085201C2
:104C5000299812032AB0A2022A4063042C100201F0
:104C60002CA0C2022DB852022D4813042FC8F20105
:104C70002F58B30330704303300004052B48310034
:104C80002BD8F1012CF081012C8042032E0022014F
:104C90002E90E2022FA872022F3833043108D2007E
:104CA0003198920232B022023240E30334C0C20192
:104CB000345083033568130335F8D3043508920064
:104CC0003598520236B0E2013640A30338C0820163
:104CD000385043033968D30239F893043BC8320192
:104CE0003B58F3023C7083023C0044043E802302A4
:104CF0003E10E4033F2874033FB8340531381100F7
:104D000031C8D10132E061013270220334F0010177
:104D10003480C202359852023528130437F8B100A6
:104D20003788720238A002023830C3033AB0A201B9
:104D30003A4063033B58F3023BE8B3043BF871008D
:104D40003B8832023CA0C2013C3083033EB062018A
:104D50003E4023033F58B3023FE8730441B81201B9
:104D60004148D3024260630242F0230444700302CC
:104D70004400C4034518540345A8140540F04100FD
:104D800040800202419892014128530343A8320116
:104D90004338F3024450830244E0430446B0E20047
:104DA0004640A3024758330247E8F3034968D3015A
:104DB00049F893034A1024034AA0E4044AB0A2002D
:104DC0004A4063024B58F3014BE8B3034D6893012B
:104DD0004DF853034E10E4024EA0A404507043015A
:104DE000500004035118940251A85404532834026B
:104DF00053B8F40354D08403546045050000000008
:104E00001C90000015A81000313811000FB83000B8
:104E10002B4831002460410040F041000AC060008E
:104E2000265061001F6871003BF8710019789100ED
:104E3000350892002E20A2004AB0A20006C0A000B1
:104E40002250A1001B68B10037F8B1001578D100DD
:104E50003108D2002A20E20046B0E20010800101B1
:104E60002C1002012528120141B812011F3832010D
:104E70003BC8320134E042015070430103B8F000F6
:104E80001F48F1001860010134F001011270210186
:104E90002E0022012718320143A832010D7851015A
:104EA00029085201222062013EB062011C308201B9
:104EB00038C0820131D892014D689301097891017F
:104EC000250892011E20A2013AB0A2011830C201A9
:104ED00034C0C2012DD8D2014968D3011338F20180
:104EE0002FC8F20128E002024470030222F02202DD
:104EF0003E802302379833025328340201A8500120
:104F00001D3851011650610132E0610110608101CC
:104F10002CF0810125089201419892010B68B101A2
:104F200027F8B1012010C2013CA0C2011A20E20101
:104F300036B0E2012FC8F2014B58F3010768F101C6
:104F400023F8F1011C10020238A0020216202202EE
:104F500032B022022BC832024758330211285202C3
:104F60002DB8520226D062024260630220E0820223
:104F70003C70830235889302511894020460410208
:104F800020F0410219085202359852021318720299
:104F90002FA8720228C08202445083020E20A2026F
:104FA0002AB0A20223C8B2023F58B3021DD8D202CF
:104FB0003968D3023280E3024E10E4020A20E20292
:104FC00026B0E2021FC8F2023B58F30219D81203BE
:104FD000356813032E8023034A10240314E0420390
:104FE00030704303298853034518540323987303EF
:104FF0003F2874033840840354D084030090C001D8
:105000001C20C1011538D10131C8D1010F48F1016F
:105010002BD8F10124F00102408002020A50210243
:1050200026E021021FF831023B88320219085202A1
:10503000359852022EB062024A4063020650610265
:1050400022E061021BF87102378872021508920291
:10505000319892022AB0A2024640A3021010C20266
:105060002CA0C20225B8D2024148D3021FC8F202C6
:105070003B58F30234700303500004030348B102A9
:105080001FD8B10218F0C1023480C2021200E2023D
:105090002E90E20227A8F2024338F3020D08120311
:1050A0002998120322B022033E4023031CC042036E
:1050B00038504303316853034DF853030908520332
:1050C000259852031EB062033A40630318C082035E
:1050D000345083032D68930349F8930313C8B20334
:1050E0002F58B3032870C3034400C4032280E30392
:1050F0003E10E4033728F40353B8F40301381103D6
:105100001DC8110316E021033270220310F0410381
:105110002C80420325985203412853030BF8710356
:105120002788720320A082033C3083031AB0A203B5
:105130003640A3032F58B3034BE8B30307F8B1037A
:105140002388B2031CA0C2033830C30316B0E203A5
:105150003240E3032B58F30347E8F30311B812047A
:105160002D4813042660230442F0230420704304D6
:105170003C0044043518540451A8540404F00104BC
:1051800020800204199812043528130413A832044D
:105190002F3833042850430444E043040EB0620423
:1051A0002A406304235873043FE873041D68930482
:1051B00039F893043210A4044EA0A4040AB0A20447
:1051C0002640A3041F58B3043BE8B3041968D30472
:1051D00035F8D3042E10E4044AA0E4041470030547
:1051E000300004052918140545A8140523283405A2
:1051F0003FB8340538D0440554604505F8B504007F
:1052000029D02078DFF87454C10711D52869A96A1C
:1052100000F03800102805D0182804BF01F0030161
:1052200002292CD129688A0302D56068002812D08F
:1052300021788A0765D52869A96A10F0380005D059
:10524000182808BF11F0030F40F08E80E06829682D
:105250004A0702D5002800F0F181296821F01901E0
:1052600008432860FEF7E6F906462868410741D45E
:10527000FEF7E0F9801B0328F7D30320F2BD606836
:10528000B0F5803F0FD038B9296821F4803129600A
:10529000286820F4802009E0B0F5A02F08D1296803
:1052A00041F480212960286840F48030286007E0BC
:1052B0002A6822F480322A60296821F4802129603A
:1052C000606858B1FEF7B6F9064629688803AFD47E
:1052D000FEF7B0F9801B6528F7D3CEE7FEF7AAF9F1
:1052E000064628688103A3D5FEF7A4F9801B65282C
:1052F000F7D3C2E76868216920F0FE4040EA016008
:1053000068602078C10619D52869A96A00F03800BC
:10531000082805D0182804BF01F00301012946D14F
:105320002868C10503D5E269802A40F08781E868D2
:10533000216A20F07C5040EA0160E8602278110781
:1053400067D56069002854D0696F41F00101696731
:10535000FEF770F90646686F81075AD4FEF76AF9BE
:10536000801B0328F7D388E7E06880B1296821F023
:10537000190108432860FEF75DF9064628684107D1
:10538000B8D4FEF757F9801B0328F7D375E72A68CE
:10539000520852002A60FEF74DF906462868410778
:1053A000AFD5FEF747F9801B0328F7D365E7E0691F
:1053B00078B1296841F080012960FEF73BF9064683
:1053C0002868C105B3D4FEF735F9801B0328F7D34D
:1053D00053E72A6822F080022A60FEF72BF906467E
:1053E0002868C105AAD5FEF725F9801B0328F7D345
:1053F00043E7686F400840006867FEF71BF9064600
:10540000686F810705D5FEF715F9801B0328F7D3D0
:1054100033E721788A0621D5A069296800280ED0B3
:1054200041F480512960FEF705F906462868810499
:1054300014D4FEF7FFF8801B0328F7D31DE721F4EF
:1054400080512960FEF7F6F806462868810405D5E4
:10545000FEF7F0F8801B0328F7D30EE72078420709
:1054600048D5874F396841F480713960FEF7E2F81A
:1054700006463868C10505D4FEF7DCF8801B6528B0
:10548000F7D3FAE6A068012804D1286F40F00100A4
:10549000286713E008B9286F09E00528286F06D1AE
:1054A00040F004002867296F41F0010105E0400841
:1054B00040002867296F21F004012967A06841F2A4
:1054C000893658B1FEF7B6F80746286F810711D420
:1054D000FEF7B0F8C01BB042F7D3CEE6FEF7AAF84D
:1054E0000746286F810705D5FEF7A4F8C01BB04218
:1054F000F7D3C2E6606A002800F0BE802969614ED9
:1055000001F03801182973D02968022821F0807130
:10551000296061D1FEF78EF807462868810105D51C
:10552000FEF788F8C01B0328F7D3A6E6AB6AA16A8A
:105530005548E26A03400B4343EA0213AB62616BD6
:10554000206BA26B491E4902401EC0F30800521E88
:1055500001F47E4112040843E16B02F4FE021043A1
:10556000491E090601F0FE4108432863E86A400825
:105570004000E862696BA06C0E4046EAC0066E63AC
:10558000E96A206C21F00C010143E962E96A606C70
:1055900021F002010143E962E96A41F48031E962E4
:1055A000E86A40F40030E862E96A41F48021E96287
:1055B000E86A40F00100E862296841F080712960E2
:1055C000FEF738F804462868810155D4FEF732F812
:1055D000001B0328F7D350E6FEF72CF80446286892
:1055E000810149D5FEF726F8001B0328F7D344E6CE
:1055F0000128A96A2A6B21D0A36A01F0030098420E
:1056000002BFC1F30510E16A884217D1236BC2F3D0
:105610000800401C984201BFC2F34620401C616B49
:1056200088420BD1A16BC2F30640401C884201BFE7
:10563000C2F30660401CE16B884201D00120F2BD3C
:10564000686BA16CC0F3CC00814215D0E86A4008B9
:105650004000E862FDF7EEFF0546FDF7EBFF401B5B
:10566000FBD00648416BA26C0E4046EAC206466378
:10567000C16A41F00101C1620020F2BD004402583C
:10568000004802580700FFFF0CFCFFFF2DE9F84F10
:10569000040032D004F13805DFF8A0832878DFF861
:1056A000A09301280AD12068484518BF404524D15D
:1056B0006168012904BFE86800281ED12068DFF86E
:1056C00084A3DFF884B3484514BF5845DFF87C63F2
:1056D00005D0404518BF50450FD1DFF8746304F181
:1056E0009000417829B90022204684F8902000F0EB
:1056F00018FA204600F07FF908B10120FFE00220EF
:1057000004F190014870E268012A02D0022A02D016
:1057100003E0102002E0202000E00020A1684FF408
:105720000067012904D0022909D0052903D005E02A
:105730004FF4806703E040F0030000E00027306092
:10574000206A002848D021680020494518BF5945E3
:1057500004D14FF480700021FEF73EFB22684245E1
:1057600004D14FF480600021FEF736FB21685145DB
:1057700004D14FF400600021FEF72EFB0A21A2693C
:105780004843B2F5002F0CD1EA68042A08BF402232
:1057900004D0082A0CBF4FF48072EA69236A5A4386
:1057A00008E0A26AB2F1806F0CBF02220122236AD4
:1057B0005A431202B0FBF2F00A22B0FBF2F201FBF4
:1057C00012016262092924BF521C6262E86804283F
:1057D00002D1616A4908616260684FF4007C002868
:1057E00018BF022803D1A869012805D102E0A869E1
:1057F000012801D04FF0000C2068DFF85812026831
:105800000A4002602368D3F800E06068E9682A690A
:1058100040EA0E00084342EA0001686962690843F1
:105820004CEA0000E16A0743A0690F431743A16AED
:105830000743606A47EA005720690F43DFF81812F0
:1058400007431F60206842680A4042602368D3F81B
:1058500004C0E069216B626B40EA0C00084342EA35
:10586000000CDFF8F801C3F804C021688B6803401E
:105870008B602368D3F808C0EA69E86A521E42EADE
:105880000C01AA6A0843696A084342EA0001286ACF
:10589000401E41EA002C4FF22000C3F808C02168E6
:1058A000CA680240CA602268D368286B696B0343E8
:1058B000E86B0B4343EA0043A86B401E43EA002316
:1058C000D3602068484518BF404510D1706C40082F
:1058D000400070642978012909D16968A868491EC7
:1058E00040EA01107064706C40F00100706404F1D3
:1058F0009000002141600122427001700020BDE84B
:10590000F28F04F17C05687D012870470121204653
:1059100000F055F800F04CF8CB0303D4026842F4D1
:10592000803202600020287532BD38B5044649B384
:10593000100027D0FFF7E5FF38D12B7D012B35D0A4
:1059400028750FF27110A16700212A806A80222237
:10595000A9616A75A9680FF20D120864A8680FF2B0
:105960005D11C263AA680020D164A9680865206837
:105970002B88A26F00F11C01A868FCF722FF18B168
:1059800000202875012032BD0021204600F017F8C4
:1059900000F00EF841F40031016020680268D30382
:1059A00003D4016841F480310160BBE7022032BDBD
:1059B00021680A691043086120680168704702463F
:1059C0000120012908BF09205168526C082A0BD117
:1059D00040F01002032908BF104609D0012905D163
:1059E000104640F004007047032901D00229F8D185
:1059F00040F06000704730B5194C072221684FF421
:105A00007A73B1FBF2F2B2FBF3F103688900002272
:105A10001C6824F480341C60036821B11C68491E92
:105A2000E503FAD406E0D0F89410032241F04001D7
:105A3000C0F89410104630BD000000000454005817
:105A40000458014024540058245801400058014093
:105A50000054005810C005F0F01FFFFF0080F8FF51
:105A60000C00002038B5846BC069B0F5807F0AD087
:105A7000206804F17E05002300F007F82B80FFF773
:105A80009EFF00F009F820460EE00021026822F493
:105A9000003202602046704721680A6922EA00004D
:105AA00008610120E8747047BDE8324000F047BA51
:105AB00000000000806B00F0B7BA000010B5846BE6
:105AC000FDF7E0FB02280BD0D4F8940040F08000F2
:105AD000C4F8940000F005F82046FFF78CFF07E0BB
